{
  "_format": "hh-sol-artifact-1",
  "contractName": "AccessPass",
  "sourceName": "contracts/AccessPass.sol",
  "abi": [
    {
      "inputs": [],
      "stateMutability": "nonpayable",
      "type": "constructor"
    },
    {
      "inputs": [
        {
          "internalType": "address",
          "name": "sender",
          "type": "address"
        },
        {
          "internalType": "uint256",
          "name": "tokenId",
          "type": "uint256"
        },
        {
          "internalType": "address",
          "name": "owner",
          "type": "address"
        }
      ],
      "name": "ERC721IncorrectOwner",
      "type": "error"
    },
    {
      "inputs": [
        {
          "internalType": "address",
          "name": "operator",
          "type": "address"
        },
        {
          "internalType": "uint256",
          "name": "tokenId",
          "type": "uint256"
        }
      ],
      "name": "ERC721InsufficientApproval",
      "type": "error"
    },
    {
      "inputs": [
        {
          "internalType": "address",
          "name": "approver",
          "type": "address"
        }
      ],
      "name": "ERC721InvalidApprover",
      "type": "error"
    },
    {
      "inputs": [
        {
          "internalType": "address",
          "name": "operator",
          "type": "address"
        }
      ],
      "name": "ERC721InvalidOperator",
      "type": "error"
    },
    {
      "inputs": [
        {
          "internalType": "address",
          "name": "owner",
          "type": "address"
        }
      ],
      "name": "ERC721InvalidOwner",
      "type": "error"
    },
    {
      "inputs": [
        {
          "internalType": "address",
          "name": "receiver",
          "type": "address"
        }
      ],
      "name": "ERC721InvalidReceiver",
      "type": "error"
    },
    {
      "inputs": [
        {
          "internalType": "address",
          "name": "sender",
          "type": "address"
        }
      ],
      "name": "ERC721InvalidSender",
      "type": "error"
    },
    {
      "inputs": [
        {
          "internalType": "uint256",
          "name": "tokenId",
          "type": "uint256"
        }
      ],
      "name": "ERC721NonexistentToken",
      "type": "error"
    },
    {
      "inputs": [
        {
          "internalType": "address",
          "name": "owner",
          "type": "address"
        }
      ],
      "name": "OwnableInvalidOwner",
      "type": "error"
    },
    {
      "inputs": [
        {
          "internalType": "address",
          "name": "account",
          "type": "address"
        }
      ],
      "name": "OwnableUnauthorizedAccount",
      "type": "error"
    },
    {
      "anonymous": false,
      "inputs": [
        {
          "indexed": true,
          "internalType": "uint256",
          "name": "productId",
          "type": "uint256"
        },
        {
          "indexed": true,
          "internalType": "uint256",
          "name": "tokenId",
          "type": "uint256"
        },
        {
          "indexed": true,
          "internalType": "address",
          "name": "buyer",
          "type": "address"
        }
      ],
      "name": "AccessPassMinted",
      "type": "event"
    },
    {
      "anonymous": false,
      "inputs": [
        {
          "indexed": true,
          "internalType": "address",
          "name": "owner",
          "type": "address"
        },
        {
          "indexed": true,
          "internalType": "address",
          "name": "approved",
          "type": "address"
        },
        {
          "indexed": true,
          "internalType": "uint256",
          "name": "tokenId",
          "type": "uint256"
        }
      ],
      "name": "Approval",
      "type": "event"
    },
    {
      "anonymous": false,
      "inputs": [
        {
          "indexed": true,
          "internalType": "address",
          "name": "owner",
          "type": "address"
        },
        {
          "indexed": true,
          "internalType": "address",
          "name": "operator",
          "type": "address"
        },
        {
          "indexed": false,
          "internalType": "bool",
          "name": "approved",
          "type": "bool"
        }
      ],
      "name": "ApprovalForAll",
      "type": "event"
    },
    {
      "anonymous": false,
      "inputs": [
        {
          "indexed": true,
          "internalType": "address",
          "name": "marketplace",
          "type": "address"
        }
      ],
      "name": "MarketplaceSet",
      "type": "event"
    },
    {
      "anonymous": false,
      "inputs": [
        {
          "indexed": true,
          "internalType": "address",
          "name": "previousOwner",
          "type": "address"
        },
        {
          "indexed": true,
          "internalType": "address",
          "name": "newOwner",
          "type": "address"
        }
      ],
      "name": "OwnershipTransferred",
      "type": "event"
    },
    {
      "anonymous": false,
      "inputs": [
        {
          "indexed": true,
          "internalType": "address",
          "name": "from",
          "type": "address"
        },
        {
          "indexed": true,
          "internalType": "address",
          "name": "to",
          "type": "address"
        },
        {
          "indexed": true,
          "internalType": "uint256",
          "name": "tokenId",
          "type": "uint256"
        }
      ],
      "name": "Transfer",
      "type": "event"
    },
    {
      "inputs": [
        {
          "internalType": "address",
          "name": "to",
          "type": "address"
        },
        {
          "internalType": "uint256",
          "name": "tokenId",
          "type": "uint256"
        }
      ],
      "name": "approve",
      "outputs": [],
      "stateMutability": "nonpayable",
      "type": "function"
    },
    {
      "inputs": [
        {
          "internalType": "address",
          "name": "owner",
          "type": "address"
        }
      ],
      "name": "balanceOf",
      "outputs": [
        {
          "internalType": "uint256",
          "name": "",
          "type": "uint256"
        }
      ],
      "stateMutability": "view",
      "type": "function"
    },
    {
      "inputs": [
        {
          "internalType": "uint256",
          "name": "tokenId",
          "type": "uint256"
        }
      ],
      "name": "getApproved",
      "outputs": [
        {
          "internalType": "address",
          "name": "",
          "type": "address"
        }
      ],
      "stateMutability": "view",
      "type": "function"
    },
    {
      "inputs": [
        {
          "internalType": "address",
          "name": "user",
          "type": "address"
        },
        {
          "internalType": "uint256",
          "name": "productId",
          "type": "uint256"
        }
      ],
      "name": "hasAccess",
      "outputs": [
        {
          "internalType": "bool",
          "name": "",
          "type": "bool"
        }
      ],
      "stateMutability": "view",
      "type": "function"
    },
    {
      "inputs": [
        {
          "internalType": "address",
          "name": "owner",
          "type": "address"
        },
        {
          "internalType": "address",
          "name": "operator",
          "type": "address"
        }
      ],
      "name": "isApprovedForAll",
      "outputs": [
        {
          "internalType": "bool",
          "name": "",
          "type": "bool"
        }
      ],
      "stateMutability": "view",
      "type": "function"
    },
    {
      "inputs": [],
      "name": "marketplace",
      "outputs": [
        {
          "internalType": "address",
          "name": "",
          "type": "address"
        }
      ],
      "stateMutability": "view",
      "type": "function"
    },
    {
      "inputs": [
        {
          "internalType": "address",
          "name": "buyer",
          "type": "address"
        },
        {
          "internalType": "uint256",
          "name": "productId",
          "type": "uint256"
        }
      ],
      "name": "mintAccessPass",
      "outputs": [
        {
          "internalType": "uint256",
          "name": "",
          "type": "uint256"
        }
      ],
      "stateMutability": "nonpayable",
      "type": "function"
    },
    {
      "inputs": [],
      "name": "name",
      "outputs": [
        {
          "internalType": "string",
          "name": "",
          "type": "string"
        }
      ],
      "stateMutability": "view",
      "type": "function"
    },
    {
      "inputs": [],
      "name": "nextTokenId",
      "outputs": [
        {
          "internalType": "uint256",
          "name": "",
          "type": "uint256"
        }
      ],
      "stateMutability": "view",
      "type": "function"
    },
    {
      "inputs": [],
      "name": "owner",
      "outputs": [
        {
          "internalType": "address",
          "name": "",
          "type": "address"
        }
      ],
      "stateMutability": "view",
      "type": "function"
    },
    {
      "inputs": [
        {
          "internalType": "uint256",
          "name": "tokenId",
          "type": "uint256"
        }
      ],
      "name": "ownerOf",
      "outputs": [
        {
          "internalType": "address",
          "name": "",
          "type": "address"
        }
      ],
      "stateMutability": "view",
      "type": "function"
    },
    {
      "inputs": [],
      "name": "renounceOwnership",
      "outputs": [],
      "stateMutability": "nonpayable",
      "type": "function"
    },
    {
      "inputs": [
        {
          "internalType": "address",
          "name": "from",
          "type": "address"
        },
        {
          "internalType": "address",
          "name": "to",
          "type": "address"
        },
        {
          "internalType": "uint256",
          "name": "tokenId",
          "type": "uint256"
        }
      ],
      "name": "safeTransferFrom",
      "outputs": [],
      "stateMutability": "nonpayable",
      "type": "function"
    },
    {
      "inputs": [
        {
          "internalType": "address",
          "name": "from",
          "type": "address"
        },
        {
          "internalType": "address",
          "name": "to",
          "type": "address"
        },
        {
          "internalType": "uint256",
          "name": "tokenId",
          "type": "uint256"
        },
        {
          "internalType": "bytes",
          "name": "data",
          "type": "bytes"
        }
      ],
      "name": "safeTransferFrom",
      "outputs": [],
      "stateMutability": "nonpayable",
      "type": "function"
    },
    {
      "inputs": [
        {
          "internalType": "address",
          "name": "operator",
          "type": "address"
        },
        {
          "internalType": "bool",
          "name": "approved",
          "type": "bool"
        }
      ],
      "name": "setApprovalForAll",
      "outputs": [],
      "stateMutability": "nonpayable",
      "type": "function"
    },
    {
      "inputs": [
        {
          "internalType": "address",
          "name": "_marketplace",
          "type": "address"
        }
      ],
      "name": "setMarketplace",
      "outputs": [],
      "stateMutability": "nonpayable",
      "type": "function"
    },
    {
      "inputs": [
        {
          "internalType": "bytes4",
          "name": "interfaceId",
          "type": "bytes4"
        }
      ],
      "name": "supportsInterface",
      "outputs": [
        {
          "internalType": "bool",
          "name": "",
          "type": "bool"
        }
      ],
      "stateMutability": "view",
      "type": "function"
    },
    {
      "inputs": [],
      "name": "symbol",
      "outputs": [
        {
          "internalType": "string",
          "name": "",
          "type": "string"
        }
      ],
      "stateMutability": "view",
      "type": "function"
    },
    {
      "inputs": [
        {
          "internalType": "uint256",
          "name": "",
          "type": "uint256"
        }
      ],
      "name": "tokenToProduct",
      "outputs": [
        {
          "internalType": "uint256",
          "name": "",
          "type": "uint256"
        }
      ],
      "stateMutability": "view",
      "type": "function"
    },
    {
      "inputs": [
        {
          "internalType": "uint256",
          "name": "tokenId",
          "type": "uint256"
        }
      ],
      "name": "tokenURI",
      "outputs": [
        {
          "internalType": "string",
          "name": "",
          "type": "string"
        }
      ],
      "stateMutability": "view",
      "type": "function"
    },
    {
      "inputs": [
        {
          "internalType": "address",
          "name": "from",
          "type": "address"
        },
        {
          "internalType": "address",
          "name": "to",
          "type": "address"
        },
        {
          "internalType": "uint256",
          "name": "tokenId",
          "type": "uint256"
        }
      ],
      "name": "transferFrom",
      "outputs": [],
      "stateMutability": "nonpayable",
      "type": "function"
    },
    {
      "inputs": [
        {
          "internalType": "address",
          "name": "newOwner",
          "type": "address"
        }
      ],
      "name": "transferOwnership",
      "outputs": [],
      "stateMutability": "nonpayable",
      "type": "function"
    }
  ],
  "bytecode": "0x60806040523480156200001157600080fd5b50336040518060400160405280600a81526020017f41636365737350617373000000000000000000000000000000000000000000008152506040518060400160405280600581526020017f4150415353000000000000000000000000000000000000000000000000000000815250816000908162000090919062000472565b508060019081620000a2919062000472565b505050600073ffffffffffffffffffffffffffffffffffffffff168173ffffffffffffffffffffffffffffffffffffffff16036200011a5760006040517f1e4fbdf70000000000000000000000000000000000000000000000000000000081526004016200011191906200059e565b60405180910390fd5b6200012b816200013260201b60201c565b50620005bb565b6000600660009054906101000a900473ffffffffffffffffffffffffffffffffffffffff16905081600660006101000a81548173ffffffffffffffffffffffffffffffffffffffff021916908373ffffffffffffffffffffffffffffffffffffffff1602179055508173ffffffffffffffffffffffffffffffffffffffff168173ffffffffffffffffffffffffffffffffffffffff167f8be0079c531659141344cd1fd0a4f28419497f9722a3daafe3b4186f6b6457e060405160405180910390a35050565b600081519050919050565b7f4e487b7100000000000000000000000000000000000000000000000000000000600052604160045260246000fd5b7f4e487b7100000000000000000000000000000000000000000000000000000000600052602260045260246000fd5b600060028204905060018216806200027a57607f821691505b60208210810362000290576200028f62000232565b5b50919050565b60008190508160005260206000209050919050565b60006020601f8301049050919050565b600082821b905092915050565b600060088302620002fa7fffffffffffffffffffffffffffffffffffffffffffffffffffffffffffffffff82620002bb565b620003068683620002bb565b95508019841693508086168417925050509392505050565b6000819050919050565b6000819050919050565b6000620003536200034d62000347846200031e565b62000328565b6200031e565b9050919050565b6000819050919050565b6200036f8362000332565b620003876200037e826200035a565b848454620002c8565b825550505050565b600090565b6200039e6200038f565b620003ab81848462000364565b505050565b5b81811015620003d357620003c760008262000394565b600181019050620003b1565b5050565b601f8211156200042257620003ec8162000296565b620003f784620002ab565b8101602085101562000407578190505b6200041f6200041685620002ab565b830182620003b0565b50505b505050565b600082821c905092915050565b6000620004476000198460080262000427565b1980831691505092915050565b600062000462838362000434565b9150826002028217905092915050565b6200047d82620001f8565b67ffffffffffffffff81111562000499576200049862000203565b5b620004a5825462000261565b620004b2828285620003d7565b600060209050601f831160018114620004ea5760008415620004d5578287015190505b620004e1858262000454565b86555062000551565b601f198416620004fa8662000296565b60005b828110156200052457848901518255600182019150602085019450602081019050620004fd565b8683101562000544578489015162000540601f89168262000434565b8355505b6001600288020188555050505b505050505050565b600073ffffffffffffffffffffffffffffffffffffffff82169050919050565b6000620005868262000559565b9050919050565b620005988162000579565b82525050565b6000602082019050620005b560008301846200058d565b92915050565b61258980620005cb6000396000f3fe608060405234801561001057600080fd5b50600436106101425760003560e01c806375794a3c116100b8578063b88d4fde1161007c578063b88d4fde14610363578063c6530e411461037f578063c87b56dd146103af578063d76bf566146103df578063e985e9c51461040f578063f2fde38b1461043f57610142565b806375794a3c146102cf5780638da5cb5b146102ed57806395d89b411461030b578063a22cb46514610329578063abc8c7af1461034557610142565b806342842e0e1161010a57806342842e0e146101fd578063517ce6fa146102195780636352211e1461024957806370a0823114610279578063715018a6146102a957806373ad6c2d146102b357610142565b806301ffc9a71461014757806306fdde0314610177578063081812fc14610195578063095ea7b3146101c557806323b872dd146101e1575b600080fd5b610161600480360381019061015c9190611d33565b61045b565b60405161016e9190611d7b565b60405180910390f35b61017f61053d565b60405161018c9190611e26565b60405180910390f35b6101af60048036038101906101aa9190611e7e565b6105cf565b6040516101bc9190611eec565b60405180910390f35b6101df60048036038101906101da9190611f33565b6105eb565b005b6101fb60048036038101906101f69190611f73565b610601565b005b61021760048036038101906102129190611f73565b610703565b005b610233600480360381019061022e9190611f33565b610723565b6040516102409190611fd5565b60405180910390f35b610263600480360381019061025e9190611e7e565b610809565b6040516102709190611eec565b60405180910390f35b610293600480360381019061028e9190611ff0565b61081b565b6040516102a09190611fd5565b60405180910390f35b6102b16108d5565b005b6102cd60048036038101906102c89190611ff0565b6108e9565b005b6102d7610978565b6040516102e49190611fd5565b60405180910390f35b6102f561097e565b6040516103029190611eec565b60405180910390f35b6103136109a8565b6040516103209190611e26565b60405180910390f35b610343600480360381019061033e9190612049565b610a3a565b005b61034d610a50565b60405161035a9190611eec565b60405180910390f35b61037d600480360381019061037891906121be565b610a76565b005b61039960048036038101906103949190611f33565b610a9b565b6040516103a69190611d7b565b60405180910390f35b6103c960048036038101906103c49190611e7e565b610af8565b6040516103d69190611e26565b60405180910390f35b6103f960048036038101906103f49190611e7e565b610b61565b6040516104069190611fd5565b60405180910390f35b61042960048036038101906104249190612241565b610b79565b6040516104369190611d7b565b60405180910390f35b61045960048036038101906104549190611ff0565b610c0d565b005b60007f80ac58cd000000000000000000000000000000000000000000000000000000007bffffffffffffffffffffffffffffffffffffffffffffffffffffffff1916827bffffffffffffffffffffffffffffffffffffffffffffffffffffffff1916148061052657507f5b5e139f000000000000000000000000000000000000000000000000000000007bffffffffffffffffffffffffffffffffffffffffffffffffffffffff1916827bffffffffffffffffffffffffffffffffffffffffffffffffffffffff1916145b80610536575061053582610c93565b5b9050919050565b60606000805461054c906122b0565b80601f0160208091040260200160405190810160405280929190818152602001828054610578906122b0565b80156105c55780601f1061059a576101008083540402835291602001916105c5565b820191906000526020600020905b8154815290600101906020018083116105a857829003601f168201915b5050505050905090565b60006105da82610cfd565b506105e482610d85565b9050919050565b6105fd82826105f8610dc2565b610dca565b5050565b600073ffffffffffffffffffffffffffffffffffffffff168273ffffffffffffffffffffffffffffffffffffffff16036106735760006040517f64a0ae9200000000000000000000000000000000000000000000000000000000815260040161066a9190611eec565b60405180910390fd5b60006106878383610682610dc2565b610ddc565b90508373ffffffffffffffffffffffffffffffffffffffff168173ffffffffffffffffffffffffffffffffffffffff16146106fd578382826040517f64283d7b0000000000000000000000000000000000000000000000000000000081526004016106f4939291906122e1565b60405180910390fd5b50505050565b61071e83838360405180602001604052806000815250610a76565b505050565b6000600860009054906101000a900473ffffffffffffffffffffffffffffffffffffffff1673ffffffffffffffffffffffffffffffffffffffff163373ffffffffffffffffffffffffffffffffffffffff161461077f57600080fd5b600060076000815461079090612347565b91905081905590508260096000838152602001908152602001600020819055506107ba8482610f46565b8373ffffffffffffffffffffffffffffffffffffffff1681847f68e893179dc88c96e045b4f9928c0f69fbea4c749b50412a6ca47f34fe8aed0660405160405180910390a48091505092915050565b600061081482610cfd565b9050919050565b60008073ffffffffffffffffffffffffffffffffffffffff168273ffffffffffffffffffffffffffffffffffffffff160361088e5760006040517f89c62b640000000000000000000000000000000000000000000000000000000081526004016108859190611eec565b60405180910390fd5b600360008373ffffffffffffffffffffffffffffffffffffffff1673ffffffffffffffffffffffffffffffffffffffff168152602001908152602001600020549050919050565b6108dd610f64565b6108e76000610feb565b565b6108f1610f64565b80600860006101000a81548173ffffffffffffffffffffffffffffffffffffffff021916908373ffffffffffffffffffffffffffffffffffffffff1602179055508073ffffffffffffffffffffffffffffffffffffffff167f78fd71746fd8724dd16b5a93e765a076614159ebdc73d996a6a8884f358898e560405160405180910390a250565b60075481565b6000600660009054906101000a900473ffffffffffffffffffffffffffffffffffffffff16905090565b6060600180546109b7906122b0565b80601f01602080910402602001604051908101604052809291908181526020018280546109e3906122b0565b8015610a305780601f10610a0557610100808354040283529160200191610a30565b820191906000526020600020905b815481529060010190602001808311610a1357829003601f168201915b5050505050905090565b610a4c610a45610dc2565b83836110b1565b5050565b600860009054906101000a900473ffffffffffffffffffffffffffffffffffffffff1681565b610a81848484610601565b610a95610a8c610dc2565b85858585611220565b50505050565b600080600a600084815260200190815260200160002060008573ffffffffffffffffffffffffffffffffffffffff1673ffffffffffffffffffffffffffffffffffffffff1681526020019081526020016000205411905092915050565b6060610b0382610cfd565b506000610b0e6113d1565b90506000815111610b2e5760405180602001604052806000815250610b59565b80610b38846113e8565b604051602001610b499291906123cb565b6040516020818303038152906040525b915050919050565b60096020528060005260406000206000915090505481565b6000600560008473ffffffffffffffffffffffffffffffffffffffff1673ffffffffffffffffffffffffffffffffffffffff16815260200190815260200160002060008373ffffffffffffffffffffffffffffffffffffffff1673ffffffffffffffffffffffffffffffffffffffff16815260200190815260200160002060009054906101000a900460ff16905092915050565b610c15610f64565b600073ffffffffffffffffffffffffffffffffffffffff168173ffffffffffffffffffffffffffffffffffffffff1603610c875760006040517f1e4fbdf7000000000000000000000000000000000000000000000000000000008152600401610c7e9190611eec565b60405180910390fd5b610c9081610feb565b50565b60007f01ffc9a7000000000000000000000000000000000000000000000000000000007bffffffffffffffffffffffffffffffffffffffffffffffffffffffff1916827bffffffffffffffffffffffffffffffffffffffffffffffffffffffff1916149050919050565b600080610d09836114b6565b9050600073ffffffffffffffffffffffffffffffffffffffff168173ffffffffffffffffffffffffffffffffffffffff1603610d7c57826040517f7e273289000000000000000000000000000000000000000000000000000000008152600401610d739190611fd5565b60405180910390fd5b80915050919050565b60006004600083815260200190815260200160002060009054906101000a900473ffffffffffffffffffffffffffffffffffffffff169050919050565b600033905090565b610dd783838360016114f3565b505050565b600080610dea8585856116b8565b9050600060096000868152602001908152602001600020549050600073ffffffffffffffffffffffffffffffffffffffff168273ffffffffffffffffffffffffffffffffffffffff1614610e9f57600a600082815260200190815260200160002060008373ffffffffffffffffffffffffffffffffffffffff1673ffffffffffffffffffffffffffffffffffffffff1681526020019081526020016000206000815480929190610e99906123ef565b91905055505b600073ffffffffffffffffffffffffffffffffffffffff168673ffffffffffffffffffffffffffffffffffffffff1614610f3a57600a600082815260200190815260200160002060008773ffffffffffffffffffffffffffffffffffffffff1673ffffffffffffffffffffffffffffffffffffffff1681526020019081526020016000206000815480929190610f3490612347565b91905055505b81925050509392505050565b610f608282604051806020016040528060008152506118d2565b5050565b610f6c610dc2565b73ffffffffffffffffffffffffffffffffffffffff16610f8a61097e565b73ffffffffffffffffffffffffffffffffffffffff1614610fe957610fad610dc2565b6040517f118cdaa7000000000000000000000000000000000000000000000000000000008152600401610fe09190611eec565b60405180910390fd5b565b6000600660009054906101000a900473ffffffffffffffffffffffffffffffffffffffff16905081600660006101000a81548173ffffffffffffffffffffffffffffffffffffffff021916908373ffffffffffffffffffffffffffffffffffffffff1602179055508173ffffffffffffffffffffffffffffffffffffffff168173ffffffffffffffffffffffffffffffffffffffff167f8be0079c531659141344cd1fd0a4f28419497f9722a3daafe3b4186f6b6457e060405160405180910390a35050565b600073ffffffffffffffffffffffffffffffffffffffff168273ffffffffffffffffffffffffffffffffffffffff160361112257816040517f5b08ba180000000000000000000000000000000000000000000000000000000081526004016111199190611eec565b60405180910390fd5b80600560008573ffffffffffffffffffffffffffffffffffffffff1673ffffffffffffffffffffffffffffffffffffffff16815260200190815260200160002060008473ffffffffffffffffffffffffffffffffffffffff1673ffffffffffffffffffffffffffffffffffffffff16815260200190815260200160002060006101000a81548160ff0219169083151502179055508173ffffffffffffffffffffffffffffffffffffffff168373ffffffffffffffffffffffffffffffffffffffff167f17307eab39ab6107e8899845ad3d59bd9653f200f220920489ca2b5937696c31836040516112139190611d7b565b60405180910390a3505050565b60008373ffffffffffffffffffffffffffffffffffffffff163b11156113ca578273ffffffffffffffffffffffffffffffffffffffff1663150b7a02868685856040518563ffffffff1660e01b815260040161127f949392919061246d565b6020604051808303816000875af19250505080156112bb57506040513d601f19601f820116820180604052508101906112b891906124ce565b60015b61133f573d80600081146112eb576040519150601f19603f3d011682016040523d82523d6000602084013e6112f0565b606091505b50600081510361133757836040517f64a0ae9200000000000000000000000000000000000000000000000000000000815260040161132e9190611eec565b60405180910390fd5b805160208201fd5b63150b7a0260e01b7bffffffffffffffffffffffffffffffffffffffffffffffffffffffff1916817bffffffffffffffffffffffffffffffffffffffffffffffffffffffff1916146113c857836040517f64a0ae920000000000000000000000000000000000000000000000000000000081526004016113bf9190611eec565b60405180910390fd5b505b5050505050565b606060405180602001604052806000815250905090565b6060600060016113f7846118f6565b01905060008167ffffffffffffffff81111561141657611415612093565b5b6040519080825280601f01601f1916602001820160405280156114485781602001600182028036833780820191505090505b509050600082602083010190505b6001156114ab578080600190039150507f3031323334353637383961626364656600000000000000000000000000000000600a86061a8153600a858161149f5761149e6124fb565b5b04945060008503611456575b819350505050919050565b60006002600083815260200190815260200160002060009054906101000a900473ffffffffffffffffffffffffffffffffffffffff169050919050565b808061152c5750600073ffffffffffffffffffffffffffffffffffffffff168273ffffffffffffffffffffffffffffffffffffffff1614155b1561166057600061153c84610cfd565b9050600073ffffffffffffffffffffffffffffffffffffffff168373ffffffffffffffffffffffffffffffffffffffff16141580156115a757508273ffffffffffffffffffffffffffffffffffffffff168173ffffffffffffffffffffffffffffffffffffffff1614155b80156115ba57506115b88184610b79565b155b156115fc57826040517fa9fbf51f0000000000000000000000000000000000000000000000000000000081526004016115f39190611eec565b60405180910390fd5b811561165e57838573ffffffffffffffffffffffffffffffffffffffff168273ffffffffffffffffffffffffffffffffffffffff167f8c5be1e5ebec7d5bd14f71427d1e84f3dd0314c0f7b2291e5b200ac8c7c3b92560405160405180910390a45b505b836004600085815260200190815260200160002060006101000a81548173ffffffffffffffffffffffffffffffffffffffff021916908373ffffffffffffffffffffffffffffffffffffffff16021790555050505050565b6000806116c4846114b6565b9050600073ffffffffffffffffffffffffffffffffffffffff168373ffffffffffffffffffffffffffffffffffffffff161461170657611705818486611a49565b5b600073ffffffffffffffffffffffffffffffffffffffff168173ffffffffffffffffffffffffffffffffffffffff1614611797576117486000856000806114f3565b6001600360008373ffffffffffffffffffffffffffffffffffffffff1673ffffffffffffffffffffffffffffffffffffffff168152602001908152602001600020600082825403925050819055505b600073ffffffffffffffffffffffffffffffffffffffff168573ffffffffffffffffffffffffffffffffffffffff161461181a576001600360008773ffffffffffffffffffffffffffffffffffffffff1673ffffffffffffffffffffffffffffffffffffffff168152602001908152602001600020600082825401925050819055505b846002600086815260200190815260200160002060006101000a81548173ffffffffffffffffffffffffffffffffffffffff021916908373ffffffffffffffffffffffffffffffffffffffff160217905550838573ffffffffffffffffffffffffffffffffffffffff168273ffffffffffffffffffffffffffffffffffffffff167fddf252ad1be2c89b69c2b068fc378daa952ba7f163c4a11628f55a4df523b3ef60405160405180910390a4809150509392505050565b6118dc8383611b0d565b6118f16118e7610dc2565b6000858585611220565b505050565b600080600090507a184f03e93ff9f4daa797ed6e38ed64bf6a1f0100000000000000008310611954577a184f03e93ff9f4daa797ed6e38ed64bf6a1f010000000000000000838161194a576119496124fb565b5b0492506040810190505b6d04ee2d6d415b85acef81000000008310611991576d04ee2d6d415b85acef81000000008381611987576119866124fb565b5b0492506020810190505b662386f26fc1000083106119c057662386f26fc1000083816119b6576119b56124fb565b5b0492506010810190505b6305f5e10083106119e9576305f5e10083816119df576119de6124fb565b5b0492506008810190505b6127108310611a0e576127108381611a0457611a036124fb565b5b0492506004810190505b60648310611a315760648381611a2757611a266124fb565b5b0492506002810190505b600a8310611a40576001810190505b80915050919050565b611a54838383611c06565b611b0857600073ffffffffffffffffffffffffffffffffffffffff168373ffffffffffffffffffffffffffffffffffffffff1603611ac957806040517f7e273289000000000000000000000000000000000000000000000000000000008152600401611ac09190611fd5565b60405180910390fd5b81816040517f177e802f000000000000000000000000000000000000000000000000000000008152600401611aff92919061252a565b60405180910390fd5b505050565b600073ffffffffffffffffffffffffffffffffffffffff168273ffffffffffffffffffffffffffffffffffffffff1603611b7f5760006040517f64a0ae92000000000000000000000000000000000000000000000000000000008152600401611b769190611eec565b60405180910390fd5b6000611b8d83836000610ddc565b9050600073ffffffffffffffffffffffffffffffffffffffff168173ffffffffffffffffffffffffffffffffffffffff1614611c015760006040517f73c6ac6e000000000000000000000000000000000000000000000000000000008152600401611bf89190611eec565b60405180910390fd5b505050565b60008073ffffffffffffffffffffffffffffffffffffffff168373ffffffffffffffffffffffffffffffffffffffff1614158015611cbe57508273ffffffffffffffffffffffffffffffffffffffff168473ffffffffffffffffffffffffffffffffffffffff161480611c7f5750611c7e8484610b79565b5b80611cbd57508273ffffffffffffffffffffffffffffffffffffffff16611ca583610d85565b73ffffffffffffffffffffffffffffffffffffffff16145b5b90509392505050565b6000604051905090565b600080fd5b600080fd5b60007fffffffff0000000000000000000000000000000000000000000000000000000082169050919050565b611d1081611cdb565b8114611d1b57600080fd5b50565b600081359050611d2d81611d07565b92915050565b600060208284031215611d4957611d48611cd1565b5b6000611d5784828501611d1e565b91505092915050565b60008115159050919050565b611d7581611d60565b82525050565b6000602082019050611d906000830184611d6c565b92915050565b600081519050919050565b600082825260208201905092915050565b60005b83811015611dd0578082015181840152602081019050611db5565b60008484015250505050565b6000601f19601f8301169050919050565b6000611df882611d96565b611e028185611da1565b9350611e12818560208601611db2565b611e1b81611ddc565b840191505092915050565b60006020820190508181036000830152611e408184611ded565b905092915050565b6000819050919050565b611e5b81611e48565b8114611e6657600080fd5b50565b600081359050611e7881611e52565b92915050565b600060208284031215611e9457611e93611cd1565b5b6000611ea284828501611e69565b91505092915050565b600073ffffffffffffffffffffffffffffffffffffffff82169050919050565b6000611ed682611eab565b9050919050565b611ee681611ecb565b82525050565b6000602082019050611f016000830184611edd565b92915050565b611f1081611ecb565b8114611f1b57600080fd5b50565b600081359050611f2d81611f07565b92915050565b60008060408385031215611f4a57611f49611cd1565b5b6000611f5885828601611f1e565b9250506020611f6985828601611e69565b9150509250929050565b600080600060608486031215611f8c57611f8b611cd1565b5b6000611f9a86828701611f1e565b9350506020611fab86828701611f1e565b9250506040611fbc86828701611e69565b9150509250925092565b611fcf81611e48565b82525050565b6000602082019050611fea6000830184611fc6565b92915050565b60006020828403121561200657612005611cd1565b5b600061201484828501611f1e565b91505092915050565b61202681611d60565b811461203157600080fd5b50565b6000813590506120438161201d565b92915050565b600080604083850312156120605761205f611cd1565b5b600061206e85828601611f1e565b925050602061207f85828601612034565b9150509250929050565b600080fd5b600080fd5b7f4e487b7100000000000000000000000000000000000000000000000000000000600052604160045260246000fd5b6120cb82611ddc565b810181811067ffffffffffffffff821117156120ea576120e9612093565b5b80604052505050565b60006120fd611cc7565b905061210982826120c2565b919050565b600067ffffffffffffffff82111561212957612128612093565b5b61213282611ddc565b9050602081019050919050565b82818337600083830152505050565b600061216161215c8461210e565b6120f3565b90508281526020810184848401111561217d5761217c61208e565b5b61218884828561213f565b509392505050565b600082601f8301126121a5576121a4612089565b5b81356121b584826020860161214e565b91505092915050565b600080600080608085870312156121d8576121d7611cd1565b5b60006121e687828801611f1e565b94505060206121f787828801611f1e565b935050604061220887828801611e69565b925050606085013567ffffffffffffffff81111561222957612228611cd6565b5b61223587828801612190565b91505092959194509250565b6000806040838503121561225857612257611cd1565b5b600061226685828601611f1e565b925050602061227785828601611f1e565b9150509250929050565b7f4e487b7100000000000000000000000000000000000000000000000000000000600052602260045260246000fd5b600060028204905060018216806122c857607f821691505b6020821081036122db576122da612281565b5b50919050565b60006060820190506122f66000830186611edd565b6123036020830185611fc6565b6123106040830184611edd565b949350505050565b7f4e487b7100000000000000000000000000000000000000000000000000000000600052601160045260246000fd5b600061235282611e48565b91507fffffffffffffffffffffffffffffffffffffffffffffffffffffffffffffffff820361238457612383612318565b5b600182019050919050565b600081905092915050565b60006123a582611d96565b6123af818561238f565b93506123bf818560208601611db2565b80840191505092915050565b60006123d7828561239a565b91506123e3828461239a565b91508190509392505050565b60006123fa82611e48565b91506000820361240d5761240c612318565b5b600182039050919050565b600081519050919050565b600082825260208201905092915050565b600061243f82612418565b6124498185612423565b9350612459818560208601611db2565b61246281611ddc565b840191505092915050565b60006080820190506124826000830187611edd565b61248f6020830186611edd565b61249c6040830185611fc6565b81810360608301526124ae8184612434565b905095945050505050565b6000815190506124c881611d07565b92915050565b6000602082840312156124e4576124e3611cd1565b5b60006124f2848285016124b9565b91505092915050565b7f4e487b7100000000000000000000000000000000000000000000000000000000600052601260045260246000fd5b600060408201905061253f6000830185611edd565b61254c6020830184611fc6565b939250505056fea264697066735822122058759a760cb418b0c2d42a1997cdd6c14afa3d0805d4889470d0c74504e87cad64736f6c63430008140033",
  "linkReferences": {},
  "deployedLinkReferences": {}
}