{
  "_format": "hh-sol-artifact-1",
  "contractName": "Marketplace",
  "sourceName": "contracts/Marketplace.sol",
  "abi": [
    {
      "inputs": [
        {
          "internalType": "address",
          "name": "_accessPass",
          "type": "address"
        }
      ],
      "stateMutability": "nonpayable",
      "type": "constructor"
    },
    {
      "inputs": [],
      "name": "ReentrancyGuardReentrantCall",
      "type": "error"
    },
    {
      "anonymous": false,
      "inputs": [
        {
          "indexed": true,
          "internalType": "uint256",
          "name": "id",
          "type": "uint256"
        },
        {
          "indexed": true,
          "internalType": "address",
          "name": "seller",
          "type": "address"
        }
      ],
      "name": "ProductListed",
      "type": "event"
    },
    {
      "anonymous": false,
      "inputs": [
        {
          "indexed": true,
          "internalType": "uint256",
          "name": "id",
          "type": "uint256"
        },
        {
          "indexed": true,
          "internalType": "address",
          "name": "buyer",
          "type": "address"
        },
        {
          "indexed": false,
          "internalType": "uint256",
          "name": "tokenId",
          "type": "uint256"
        }
      ],
      "name": "ProductSold",
      "type": "event"
    },
    {
      "anonymous": false,
      "inputs": [
        {
          "indexed": true,
          "internalType": "uint256",
          "name": "id",
          "type": "uint256"
        }
      ],
      "name": "ProductUpdated",
      "type": "event"
    },
    {
      "inputs": [],
      "name": "accessPass",
      "outputs": [
        {
          "internalType": "contract AccessPass",
          "name": "",
          "type": "address"
        }
      ],
      "stateMutability": "view",
      "type": "function"
    },
    {
      "inputs": [
        {
          "internalType": "uint256",
          "name": "id",
          "type": "uint256"
        }
      ],
      "name": "buyProduct",
      "outputs": [
        {
          "internalType": "uint256",
          "name": "",
          "type": "uint256"
        }
      ],
      "stateMutability": "payable",
      "type": "function"
    },
    {
      "inputs": [
        {
          "internalType": "uint256",
          "name": "price",
          "type": "uint256"
        },
        {
          "internalType": "string",
          "name": "previewCid",
          "type": "string"
        },
        {
          "internalType": "string",
          "name": "metadataCid",
          "type": "string"
        },
        {
          "internalType": "string",
          "name": "contentType",
          "type": "string"
        }
      ],
      "name": "listProduct",
      "outputs": [
        {
          "internalType": "uint256",
          "name": "",
          "type": "uint256"
        }
      ],
      "stateMutability": "nonpayable",
      "type": "function"
    },
    {
      "inputs": [],
      "name": "nextProductId",
      "outputs": [
        {
          "internalType": "uint256",
          "name": "",
          "type": "uint256"
        }
      ],
      "stateMutability": "view",
      "type": "function"
    },
    {
      "inputs": [
        {
          "internalType": "uint256",
          "name": "",
          "type": "uint256"
        }
      ],
      "name": "products",
      "outputs": [
        {
          "internalType": "address",
          "name": "seller",
          "type": "address"
        },
        {
          "internalType": "uint256",
          "name": "price",
          "type": "uint256"
        },
        {
          "internalType": "bool",
          "name": "isActive",
          "type": "bool"
        },
        {
          "internalType": "string",
          "name": "previewCid",
          "type": "string"
        },
        {
          "internalType": "string",
          "name": "metadataCid",
          "type": "string"
        },
        {
          "internalType": "string",
          "name": "contentType",
          "type": "string"
        },
        {
          "internalType": "uint256",
          "name": "soldCount",
          "type": "uint256"
        }
      ],
      "stateMutability": "view",
      "type": "function"
    },
    {
      "inputs": [
        {
          "internalType": "uint256",
          "name": "id",
          "type": "uint256"
        },
        {
          "internalType": "uint256",
          "name": "newPrice",
          "type": "uint256"
        },
        {
          "internalType": "string",
          "name": "newPreviewCid",
          "type": "string"
        },
        {
          "internalType": "string",
          "name": "newMetadataCid",
          "type": "string"
        },
        {
          "internalType": "string",
          "name": "newContentType",
          "type": "string"
        },
        {
          "internalType": "bool",
          "name": "active",
          "type": "bool"
        }
      ],
      "name": "updateListing",
      "outputs": [],
      "stateMutability": "nonpayable",
      "type": "function"
    }
  ],
  "bytecode": "0x60806040523480156200001157600080fd5b5060405162001a4838038062001a488339818101604052810190620000379190620000f1565b600160008190555080600160006101000a81548173ffffffffffffffffffffffffffffffffffffffff021916908373ffffffffffffffffffffffffffffffffffffffff1602179055505062000123565b600080fd5b600073ffffffffffffffffffffffffffffffffffffffff82169050919050565b6000620000b9826200008c565b9050919050565b620000cb81620000ac565b8114620000d757600080fd5b50565b600081519050620000eb81620000c0565b92915050565b6000602082840312156200010a576200010962000087565b5b60006200011a84828501620000da565b91505092915050565b61191580620001336000396000f3fe6080604052600436106100555760003560e01c80630d671ed41461005a5780634de91a63146100855780635434e8e4146100b05780637acc0b20146100d95780638642269e1461011c578063f25453531461014c575b600080fd5b34801561006657600080fd5b5061006f610189565b60405161007c9190610c2e565b60405180910390f35b34801561009157600080fd5b5061009a6101af565b6040516100a79190610c62565b60405180910390f35b3480156100bc57600080fd5b506100d760048036038101906100d29190610d50565b6101b5565b005b3480156100e557600080fd5b5061010060048036038101906100fb9190610e3f565b610382565b6040516101139796959493929190610f2c565b60405180910390f35b61013660048036038101906101319190610e3f565b610589565b6040516101439190610c62565b60405180910390f35b34801561015857600080fd5b50610173600480360381019061016e9190610fb0565b6108c3565b6040516101809190610c62565b60405180910390f35b600160009054906101000a900473ffffffffffffffffffffffffffffffffffffffff1681565b60025481565b6000600360008b815260200190815260200160002090508060000160009054906101000a900473ffffffffffffffffffffffffffffffffffffffff1673ffffffffffffffffffffffffffffffffffffffff163373ffffffffffffffffffffffffffffffffffffffff161461025e576040517f08c379a0000000000000000000000000000000000000000000000000000000008152600401610255906110c5565b60405180910390fd5b60008160060154146102a5576040517f08c379a000000000000000000000000000000000000000000000000000000000815260040161029c90611131565b60405180910390fd5b600089116102e8576040517f08c379a00000000000000000000000000000000000000000000000000000000081526004016102df9061119d565b60405180910390fd5b88816001018190555087878260030191826103049291906113f9565b5085858260040191826103189291906113f9565b50838382600501918261032c9291906113f9565b50818160020160006101000a81548160ff021916908315150217905550897feca6714fcf568fb34cf9db4a414cb0cc48e93c5d4e1ba0582a46ea3704cf24d560405160405180910390a250505050505050505050565b60036020528060005260406000206000915090508060000160009054906101000a900473ffffffffffffffffffffffffffffffffffffffff16908060010154908060020160009054906101000a900460ff16908060030180546103e490611226565b80601f016020809104026020016040519081016040528092919081815260200182805461041090611226565b801561045d5780601f106104325761010080835404028352916020019161045d565b820191906000526020600020905b81548152906001019060200180831161044057829003601f168201915b50505050509080600401805461047290611226565b80601f016020809104026020016040519081016040528092919081815260200182805461049e90611226565b80156104eb5780601f106104c0576101008083540402835291602001916104eb565b820191906000526020600020905b8154815290600101906020018083116104ce57829003601f168201915b50505050509080600501805461050090611226565b80601f016020809104026020016040519081016040528092919081815260200182805461052c90611226565b80156105795780601f1061054e57610100808354040283529160200191610579565b820191906000526020600020905b81548152906001019060200180831161055c57829003601f168201915b5050505050908060060154905087565b6000610593610b5f565b60006003600084815260200190815260200160002090508060020160009054906101000a900460ff166105fb576040517f08c379a00000000000000000000000000000000000000000000000000000000081526004016105f290611515565b60405180910390fd5b8060000160009054906101000a900473ffffffffffffffffffffffffffffffffffffffff1673ffffffffffffffffffffffffffffffffffffffff163373ffffffffffffffffffffffffffffffffffffffff160361068d576040517f08c379a000000000000000000000000000000000000000000000000000000000815260040161068490611581565b60405180910390fd5b806001015434146106d3576040517f08c379a00000000000000000000000000000000000000000000000000000000081526004016106ca906115ed565b60405180910390fd5b8060060160008154809291906106e89061163c565b91905055506000600160009054906101000a900473ffffffffffffffffffffffffffffffffffffffff1673ffffffffffffffffffffffffffffffffffffffff1663517ce6fa33866040518363ffffffff1660e01b815260040161074c929190611684565b6020604051808303816000875af115801561076b573d6000803e3d6000fd5b505050506040513d601f19601f8201168201806040525081019061078f91906116c2565b905060008260000160009054906101000a900473ffffffffffffffffffffffffffffffffffffffff1673ffffffffffffffffffffffffffffffffffffffff16346040516107db90611720565b60006040518083038185875af1925050503d8060008114610818576040519150601f19603f3d011682016040523d82523d6000602084013e61081d565b606091505b5050905080610861576040517f08c379a000000000000000000000000000000000000000000000000000000000815260040161085890611781565b60405180910390fd5b3373ffffffffffffffffffffffffffffffffffffffff16857f31bb31d00bedecd9cb0a6f27507b6f5b268f069f24168aa35ae70c21c2e8d5ca846040516108a89190610c62565b60405180910390a38193505050506108be610ba5565b919050565b6000808811610907576040517f08c379a00000000000000000000000000000000000000000000000000000000081526004016108fe906117ed565b60405180910390fd5b60006002600081546109189061163c565b91905081905590506040518060e001604052803373ffffffffffffffffffffffffffffffffffffffff1681526020018a815260200160011515815260200189898080601f016020809104026020016040519081016040528093929190818152602001838380828437600081840152601f19601f82011690508083019250505050505050815260200187878080601f016020809104026020016040519081016040528093929190818152602001838380828437600081840152601f19601f82011690508083019250505050505050815260200185858080601f016020809104026020016040519081016040528093929190818152602001838380828437600081840152601f19601f82011690508083019250505050505050815260200160008152506003600083815260200190815260200160002060008201518160000160006101000a81548173ffffffffffffffffffffffffffffffffffffffff021916908373ffffffffffffffffffffffffffffffffffffffff1602179055506020820151816001015560408201518160020160006101000a81548160ff0219169083151502179055506060820151816003019081610ad2919061180d565b506080820151816004019081610ae8919061180d565b5060a0820151816005019081610afe919061180d565b5060c082015181600601559050503373ffffffffffffffffffffffffffffffffffffffff16817f3e4b9f56a2f12a02bfa41a1e4f6311997f3ea53a393652671067d0ce2b6a139160405160405180910390a380915050979650505050505050565b600260005403610b9b576040517f3ee5aeb500000000000000000000000000000000000000000000000000000000815260040160405180910390fd5b6002600081905550565b6001600081905550565b600073ffffffffffffffffffffffffffffffffffffffff82169050919050565b6000819050919050565b6000610bf4610bef610bea84610baf565b610bcf565b610baf565b9050919050565b6000610c0682610bd9565b9050919050565b6000610c1882610bfb565b9050919050565b610c2881610c0d565b82525050565b6000602082019050610c436000830184610c1f565b92915050565b6000819050919050565b610c5c81610c49565b82525050565b6000602082019050610c776000830184610c53565b92915050565b600080fd5b600080fd5b610c9081610c49565b8114610c9b57600080fd5b50565b600081359050610cad81610c87565b92915050565b600080fd5b600080fd5b600080fd5b60008083601f840112610cd857610cd7610cb3565b5b8235905067ffffffffffffffff811115610cf557610cf4610cb8565b5b602083019150836001820283011115610d1157610d10610cbd565b5b9250929050565b60008115159050919050565b610d2d81610d18565b8114610d3857600080fd5b50565b600081359050610d4a81610d24565b92915050565b600080600080600080600080600060c08a8c031215610d7257610d71610c7d565b5b6000610d808c828d01610c9e565b9950506020610d918c828d01610c9e565b98505060408a013567ffffffffffffffff811115610db257610db1610c82565b5b610dbe8c828d01610cc2565b975097505060608a013567ffffffffffffffff811115610de157610de0610c82565b5b610ded8c828d01610cc2565b955095505060808a013567ffffffffffffffff811115610e1057610e0f610c82565b5b610e1c8c828d01610cc2565b935093505060a0610e2f8c828d01610d3b565b9150509295985092959850929598565b600060208284031215610e5557610e54610c7d565b5b6000610e6384828501610c9e565b91505092915050565b6000610e7782610baf565b9050919050565b610e8781610e6c565b82525050565b610e9681610d18565b82525050565b600081519050919050565b600082825260208201905092915050565b60005b83811015610ed6578082015181840152602081019050610ebb565b60008484015250505050565b6000601f19601f8301169050919050565b6000610efe82610e9c565b610f088185610ea7565b9350610f18818560208601610eb8565b610f2181610ee2565b840191505092915050565b600060e082019050610f41600083018a610e7e565b610f4e6020830189610c53565b610f5b6040830188610e8d565b8181036060830152610f6d8187610ef3565b90508181036080830152610f818186610ef3565b905081810360a0830152610f958185610ef3565b9050610fa460c0830184610c53565b98975050505050505050565b60008060008060008060006080888a031215610fcf57610fce610c7d565b5b6000610fdd8a828b01610c9e565b975050602088013567ffffffffffffffff811115610ffe57610ffd610c82565b5b61100a8a828b01610cc2565b9650965050604088013567ffffffffffffffff81111561102d5761102c610c82565b5b6110398a828b01610cc2565b9450945050606088013567ffffffffffffffff81111561105c5761105b610c82565b5b6110688a828b01610cc2565b925092505092959891949750929550565b7f4e6f742073656c6c657200000000000000000000000000000000000000000000600082015250565b60006110af600a83610ea7565b91506110ba82611079565b602082019050919050565b600060208201905081810360008301526110de816110a2565b9050919050565b7f43616e6e6f742075706461746520736f6c642070726f64756374000000000000600082015250565b600061111b601a83610ea7565b9150611126826110e5565b602082019050919050565b6000602082019050818103600083015261114a8161110e565b9050919050565b7f5072696365206d757374206265203e2030000000000000000000000000000000600082015250565b6000611187601183610ea7565b915061119282611151565b602082019050919050565b600060208201905081810360008301526111b68161117a565b9050919050565b600082905092915050565b7f4e487b7100000000000000000000000000000000000000000000000000000000600052604160045260246000fd5b7f4e487b7100000000000000000000000000000000000000000000000000000000600052602260045260246000fd5b6000600282049050600182168061123e57607f821691505b602082108103611251576112506111f7565b5b50919050565b60008190508160005260206000209050919050565b60006020601f8301049050919050565b600082821b905092915050565b6000600883026112b97fffffffffffffffffffffffffffffffffffffffffffffffffffffffffffffffff8261127c565b6112c3868361127c565b95508019841693508086168417925050509392505050565b60006112f66112f16112ec84610c49565b610bcf565b610c49565b9050919050565b6000819050919050565b611310836112db565b61132461131c826112fd565b848454611289565b825550505050565b600090565b61133961132c565b611344818484611307565b505050565b5b818110156113685761135d600082611331565b60018101905061134a565b5050565b601f8211156113ad5761137e81611257565b6113878461126c565b81016020851015611396578190505b6113aa6113a28561126c565b830182611349565b50505b505050565b600082821c905092915050565b60006113d0600019846008026113b2565b1980831691505092915050565b60006113e983836113bf565b9150826002028217905092915050565b61140383836111bd565b67ffffffffffffffff81111561141c5761141b6111c8565b5b6114268254611226565b61143182828561136c565b6000601f831160018114611460576000841561144e578287013590505b61145885826113dd565b8655506114c0565b601f19841661146e86611257565b60005b8281101561149657848901358255600182019150602085019450602081019050611471565b868310156114b357848901356114af601f8916826113bf565b8355505b6001600288020188555050505b50505050505050565b7f4e6f742041637469766500000000000000000000000000000000000000000000600082015250565b60006114ff600a83610ea7565b915061150a826114c9565b602082019050919050565b6000602082019050818103600083015261152e816114f2565b9050919050565b7f53656c6c65722063616e6e6f7420627579000000000000000000000000000000600082015250565b600061156b601183610ea7565b915061157682611535565b602082019050919050565b6000602082019050818103600083015261159a8161155e565b9050919050565b7f57726f6e672076616c7565000000000000000000000000000000000000000000600082015250565b60006115d7600b83610ea7565b91506115e2826115a1565b602082019050919050565b60006020820190508181036000830152611606816115ca565b9050919050565b7f4e487b7100000000000000000000000000000000000000000000000000000000600052601160045260246000fd5b600061164782610c49565b91507fffffffffffffffffffffffffffffffffffffffffffffffffffffffffffffffff82036116795761167861160d565b5b600182019050919050565b60006040820190506116996000830185610e7e565b6116a66020830184610c53565b9392505050565b6000815190506116bc81610c87565b92915050565b6000602082840312156116d8576116d7610c7d565b5b60006116e6848285016116ad565b91505092915050565b600081905092915050565b50565b600061170a6000836116ef565b9150611715826116fa565b600082019050919050565b600061172b826116fd565b9150819050919050565b7f5061796d656e74204661696c6564000000000000000000000000000000000000600082015250565b600061176b600e83610ea7565b915061177682611735565b602082019050919050565b6000602082019050818103600083015261179a8161175e565b9050919050565b7f20496e76616c6964205072696365000000000000000000000000000000000000600082015250565b60006117d7600e83610ea7565b91506117e2826117a1565b602082019050919050565b60006020820190508181036000830152611806816117ca565b9050919050565b61181682610e9c565b67ffffffffffffffff81111561182f5761182e6111c8565b5b6118398254611226565b61184482828561136c565b600060209050601f8311600181146118775760008415611865578287015190505b61186f85826113dd565b8655506118d7565b601f19841661188586611257565b60005b828110156118ad57848901518255600182019150602085019450602081019050611888565b868310156118ca57848901516118c6601f8916826113bf565b8355505b6001600288020188555050505b50505050505056fea2646970667358221220d49d4c4e8f08f20bd5c47b05af76b748a8eede3cf6464326ee1023c1c3b2d63364736f6c63430008140033",
  "linkReferences": {},
  "deployedLinkReferences": {}
}