{
  "_format": "hh-sol-artifact-1",
  "contractName": "Marketplace",
  "sourceName": "contracts/Marketplace.sol",
  "abi": [
    {
      "inputs": [
        {
          "internalType": "address",
          "name": "_accessPass",
          "type": "address"
        }
      ],
      "stateMutability": "nonpayable",
      "type": "constructor"
    },
    {
      "inputs": [],
      "name": "ReentrancyGuardReentrantCall",
      "type": "error"
    },
    {
      "anonymous": false,
      "inputs": [
        {
          "indexed": true,
          "internalType": "uint256",
          "name": "id",
          "type": "uint256"
        },
        {
          "indexed": true,
          "internalType": "address",
          "name": "seller",
          "type": "address"
        }
      ],
      "name": "ProductListed",
      "type": "event"
    },
    {
      "anonymous": false,
      "inputs": [
        {
          "indexed": true,
          "internalType": "uint256",
          "name": "id",
          "type": "uint256"
        },
        {
          "indexed": true,
          "internalType": "address",
          "name": "buyer",
          "type": "address"
        },
        {
          "indexed": false,
          "internalType": "uint256",
          "name": "tokenId",
          "type": "uint256"
        }
      ],
      "name": "ProductSold",
      "type": "event"
    },
    {
      "anonymous": false,
      "inputs": [
        {
          "indexed": true,
          "internalType": "uint256",
          "name": "id",
          "type": "uint256"
        }
      ],
      "name": "ProductUpdated",
      "type": "event"
    },
    {
      "inputs": [],
      "name": "accessPass",
      "outputs": [
        {
          "internalType": "contract AccessPass",
          "name": "",
          "type": "address"
        }
      ],
      "stateMutability": "view",
      "type": "function"
    },
    {
      "inputs": [
        {
          "internalType": "uint256",
          "name": "id",
          "type": "uint256"
        }
      ],
      "name": "buyProduct",
      "outputs": [
        {
          "internalType": "uint256",
          "name": "",
          "type": "uint256"
        }
      ],
      "stateMutability": "payable",
      "type": "function"
    },
    {
      "inputs": [
        {
          "internalType": "uint256",
          "name": "price",
          "type": "uint256"
        },
        {
          "internalType": "string",
          "name": "previewCid",
          "type": "string"
        },
        {
          "internalType": "string",
          "name": "productCid",
          "type": "string"
        },
        {
          "internalType": "string",
          "name": "encryptedKey",
          "type": "string"
        },
        {
          "internalType": "string",
          "name": "contentType",
          "type": "string"
        }
      ],
      "name": "listProduct",
      "outputs": [
        {
          "internalType": "uint256",
          "name": "",
          "type": "uint256"
        }
      ],
      "stateMutability": "nonpayable",
      "type": "function"
    },
    {
      "inputs": [],
      "name": "nextProductId",
      "outputs": [
        {
          "internalType": "uint256",
          "name": "",
          "type": "uint256"
        }
      ],
      "stateMutability": "view",
      "type": "function"
    },
    {
      "inputs": [
        {
          "internalType": "uint256",
          "name": "",
          "type": "uint256"
        }
      ],
      "name": "products",
      "outputs": [
        {
          "internalType": "address",
          "name": "seller",
          "type": "address"
        },
        {
          "internalType": "uint256",
          "name": "price",
          "type": "uint256"
        },
        {
          "internalType": "bool",
          "name": "isActive",
          "type": "bool"
        },
        {
          "internalType": "string",
          "name": "previewCid",
          "type": "string"
        },
        {
          "internalType": "string",
          "name": "productCid",
          "type": "string"
        },
        {
          "internalType": "string",
          "name": "encryptedKey",
          "type": "string"
        },
        {
          "internalType": "string",
          "name": "contentType",
          "type": "string"
        },
        {
          "internalType": "uint256",
          "name": "soldCount",
          "type": "uint256"
        }
      ],
      "stateMutability": "view",
      "type": "function"
    },
    {
      "inputs": [
        {
          "internalType": "uint256",
          "name": "id",
          "type": "uint256"
        },
        {
          "internalType": "uint256",
          "name": "newPrice",
          "type": "uint256"
        },
        {
          "internalType": "string",
          "name": "newPreviewCid",
          "type": "string"
        },
        {
          "internalType": "string",
          "name": "newProductCid",
          "type": "string"
        },
        {
          "internalType": "string",
          "name": "newEncryptedKey",
          "type": "string"
        },
        {
          "internalType": "string",
          "name": "newContentType",
          "type": "string"
        },
        {
          "internalType": "bool",
          "name": "active",
          "type": "bool"
        }
      ],
      "name": "updateListing",
      "outputs": [],
      "stateMutability": "nonpayable",
      "type": "function"
    }
  ],
  "bytecode": "0x60806040523480156200001157600080fd5b5060405162001bce38038062001bce8339818101604052810190620000379190620000f1565b600160008190555080600160006101000a81548173ffffffffffffffffffffffffffffffffffffffff021916908373ffffffffffffffffffffffffffffffffffffffff1602179055505062000123565b600080fd5b600073ffffffffffffffffffffffffffffffffffffffff82169050919050565b6000620000b9826200008c565b9050919050565b620000cb81620000ac565b8114620000d757600080fd5b50565b600081519050620000eb81620000c0565b92915050565b6000602082840312156200010a576200010962000087565b5b60006200011a84828501620000da565b91505092915050565b611a9b80620001336000396000f3fe6080604052600436106100555760003560e01c80630d671ed41461005a5780634de91a63146100855780637acc0b20146100b05780638642269e146100f4578063c6df45af14610124578063fa1d21eb1461014d575b600080fd5b34801561006657600080fd5b5061006f61018a565b60405161007c9190610d36565b60405180910390f35b34801561009157600080fd5b5061009a6101b0565b6040516100a79190610d6a565b60405180910390f35b3480156100bc57600080fd5b506100d760048036038101906100d29190610dbb565b6101b6565b6040516100eb989796959493929190610eb4565b60405180910390f35b61010e60048036038101906101099190610dbb565b61044b565b60405161011b9190610d6a565b60405180910390f35b34801561013057600080fd5b5061014b60048036038101906101469190610fdf565b610785565b005b34801561015957600080fd5b50610174600480360381019061016f9190611103565b610968565b6040516101819190610d6a565b60405180910390f35b600160009054906101000a900473ffffffffffffffffffffffffffffffffffffffff1681565b60025481565b60036020528060005260406000206000915090508060000160009054906101000a900473ffffffffffffffffffffffffffffffffffffffff16908060010154908060020160009054906101000a900460ff16908060030180546102189061122e565b80601f01602080910402602001604051908101604052809291908181526020018280546102449061122e565b80156102915780601f1061026657610100808354040283529160200191610291565b820191906000526020600020905b81548152906001019060200180831161027457829003601f168201915b5050505050908060040180546102a69061122e565b80601f01602080910402602001604051908101604052809291908181526020018280546102d29061122e565b801561031f5780601f106102f45761010080835404028352916020019161031f565b820191906000526020600020905b81548152906001019060200180831161030257829003601f168201915b5050505050908060050180546103349061122e565b80601f01602080910402602001604051908101604052809291908181526020018280546103609061122e565b80156103ad5780601f10610382576101008083540402835291602001916103ad565b820191906000526020600020905b81548152906001019060200180831161039057829003601f168201915b5050505050908060060180546103c29061122e565b80601f01602080910402602001604051908101604052809291908181526020018280546103ee9061122e565b801561043b5780601f106104105761010080835404028352916020019161043b565b820191906000526020600020905b81548152906001019060200180831161041e57829003601f168201915b5050505050908060070154905088565b6000610455610c67565b60006003600084815260200190815260200160002090508060020160009054906101000a900460ff166104bd576040517f08c379a00000000000000000000000000000000000000000000000000000000081526004016104b4906112ab565b60405180910390fd5b8060000160009054906101000a900473ffffffffffffffffffffffffffffffffffffffff1673ffffffffffffffffffffffffffffffffffffffff163373ffffffffffffffffffffffffffffffffffffffff160361054f576040517f08c379a000000000000000000000000000000000000000000000000000000000815260040161054690611317565b60405180910390fd5b80600101543414610595576040517f08c379a000000000000000000000000000000000000000000000000000000000815260040161058c90611383565b60405180910390fd5b8060070160008154809291906105aa906113d2565b91905055506000600160009054906101000a900473ffffffffffffffffffffffffffffffffffffffff1673ffffffffffffffffffffffffffffffffffffffff1663517ce6fa33866040518363ffffffff1660e01b815260040161060e92919061141a565b6020604051808303816000875af115801561062d573d6000803e3d6000fd5b505050506040513d601f19601f820116820180604052508101906106519190611458565b905060008260000160009054906101000a900473ffffffffffffffffffffffffffffffffffffffff1673ffffffffffffffffffffffffffffffffffffffff163460405161069d906114b6565b60006040518083038185875af1925050503d80600081146106da576040519150601f19603f3d011682016040523d82523d6000602084013e6106df565b606091505b5050905080610723576040517f08c379a000000000000000000000000000000000000000000000000000000000815260040161071a90611517565b60405180910390fd5b3373ffffffffffffffffffffffffffffffffffffffff16857f31bb31d00bedecd9cb0a6f27507b6f5b268f069f24168aa35ae70c21c2e8d5ca8460405161076a9190610d6a565b60405180910390a3819350505050610780610cad565b919050565b6000600360008d815260200190815260200160002090508060000160009054906101000a900473ffffffffffffffffffffffffffffffffffffffff1673ffffffffffffffffffffffffffffffffffffffff163373ffffffffffffffffffffffffffffffffffffffff161461082e576040517f08c379a000000000000000000000000000000000000000000000000000000000815260040161082590611583565b60405180910390fd5b6000816007015414610875576040517f08c379a000000000000000000000000000000000000000000000000000000000815260040161086c906115ef565b60405180910390fd5b60008b116108b8576040517f08c379a00000000000000000000000000000000000000000000000000000000081526004016108af9061165b565b60405180910390fd5b8a816001018190555089898260030191826108d4929190611857565b5087878260040191826108e8929190611857565b5085858260050191826108fc929190611857565b508383826006019182610910929190611857565b50818160020160006101000a81548160ff0219169083151502179055508b7feca6714fcf568fb34cf9db4a414cb0cc48e93c5d4e1ba0582a46ea3704cf24d560405160405180910390a2505050505050505050505050565b6000808a116109ac576040517f08c379a00000000000000000000000000000000000000000000000000000000081526004016109a390611973565b60405180910390fd5b60006002600081546109bd906113d2565b91905081905590506040518061010001604052803373ffffffffffffffffffffffffffffffffffffffff1681526020018c81526020016001151581526020018b8b8080601f016020809104026020016040519081016040528093929190818152602001838380828437600081840152601f19601f82011690508083019250505050505050815260200189898080601f016020809104026020016040519081016040528093929190818152602001838380828437600081840152601f19601f82011690508083019250505050505050815260200187878080601f016020809104026020016040519081016040528093929190818152602001838380828437600081840152601f19601f82011690508083019250505050505050815260200185858080601f016020809104026020016040519081016040528093929190818152602001838380828437600081840152601f19601f82011690508083019250505050505050815260200160008152506003600083815260200190815260200160002060008201518160000160006101000a81548173ffffffffffffffffffffffffffffffffffffffff021916908373ffffffffffffffffffffffffffffffffffffffff1602179055506020820151816001015560408201518160020160006101000a81548160ff0219169083151502179055506060820151816003019081610bc29190611993565b506080820151816004019081610bd89190611993565b5060a0820151816005019081610bee9190611993565b5060c0820151816006019081610c049190611993565b5060e082015181600701559050503373ffffffffffffffffffffffffffffffffffffffff16817f3e4b9f56a2f12a02bfa41a1e4f6311997f3ea53a393652671067d0ce2b6a139160405160405180910390a3809150509998505050505050505050565b600260005403610ca3576040517f3ee5aeb500000000000000000000000000000000000000000000000000000000815260040160405180910390fd5b6002600081905550565b6001600081905550565b600073ffffffffffffffffffffffffffffffffffffffff82169050919050565b6000819050919050565b6000610cfc610cf7610cf284610cb7565b610cd7565b610cb7565b9050919050565b6000610d0e82610ce1565b9050919050565b6000610d2082610d03565b9050919050565b610d3081610d15565b82525050565b6000602082019050610d4b6000830184610d27565b92915050565b6000819050919050565b610d6481610d51565b82525050565b6000602082019050610d7f6000830184610d5b565b92915050565b600080fd5b600080fd5b610d9881610d51565b8114610da357600080fd5b50565b600081359050610db581610d8f565b92915050565b600060208284031215610dd157610dd0610d85565b5b6000610ddf84828501610da6565b91505092915050565b6000610df382610cb7565b9050919050565b610e0381610de8565b82525050565b60008115159050919050565b610e1e81610e09565b82525050565b600081519050919050565b600082825260208201905092915050565b60005b83811015610e5e578082015181840152602081019050610e43565b60008484015250505050565b6000601f19601f8301169050919050565b6000610e8682610e24565b610e908185610e2f565b9350610ea0818560208601610e40565b610ea981610e6a565b840191505092915050565b600061010082019050610eca600083018b610dfa565b610ed7602083018a610d5b565b610ee46040830189610e15565b8181036060830152610ef68188610e7b565b90508181036080830152610f0a8187610e7b565b905081810360a0830152610f1e8186610e7b565b905081810360c0830152610f328185610e7b565b9050610f4160e0830184610d5b565b9998505050505050505050565b600080fd5b600080fd5b600080fd5b60008083601f840112610f7357610f72610f4e565b5b8235905067ffffffffffffffff811115610f9057610f8f610f53565b5b602083019150836001820283011115610fac57610fab610f58565b5b9250929050565b610fbc81610e09565b8114610fc757600080fd5b50565b600081359050610fd981610fb3565b92915050565b600080600080600080600080600080600060e08c8e03121561100457611003610d85565b5b60006110128e828f01610da6565b9b505060206110238e828f01610da6565b9a505060408c013567ffffffffffffffff81111561104457611043610d8a565b5b6110508e828f01610f5d565b995099505060608c013567ffffffffffffffff81111561107357611072610d8a565b5b61107f8e828f01610f5d565b975097505060808c013567ffffffffffffffff8111156110a2576110a1610d8a565b5b6110ae8e828f01610f5d565b955095505060a08c013567ffffffffffffffff8111156110d1576110d0610d8a565b5b6110dd8e828f01610f5d565b935093505060c06110f08e828f01610fca565b9150509295989b509295989b9093969950565b600080600080600080600080600060a08a8c03121561112557611124610d85565b5b60006111338c828d01610da6565b99505060208a013567ffffffffffffffff81111561115457611153610d8a565b5b6111608c828d01610f5d565b985098505060408a013567ffffffffffffffff81111561118357611182610d8a565b5b61118f8c828d01610f5d565b965096505060608a013567ffffffffffffffff8111156111b2576111b1610d8a565b5b6111be8c828d01610f5d565b945094505060808a013567ffffffffffffffff8111156111e1576111e0610d8a565b5b6111ed8c828d01610f5d565b92509250509295985092959850929598565b7f4e487b7100000000000000000000000000000000000000000000000000000000600052602260045260246000fd5b6000600282049050600182168061124657607f821691505b602082108103611259576112586111ff565b5b50919050565b7f4e6f742041637469766500000000000000000000000000000000000000000000600082015250565b6000611295600a83610e2f565b91506112a08261125f565b602082019050919050565b600060208201905081810360008301526112c481611288565b9050919050565b7f53656c6c65722063616e6e6f7420627579000000000000000000000000000000600082015250565b6000611301601183610e2f565b915061130c826112cb565b602082019050919050565b60006020820190508181036000830152611330816112f4565b9050919050565b7f57726f6e672076616c7565000000000000000000000000000000000000000000600082015250565b600061136d600b83610e2f565b915061137882611337565b602082019050919050565b6000602082019050818103600083015261139c81611360565b9050919050565b7f4e487b7100000000000000000000000000000000000000000000000000000000600052601160045260246000fd5b60006113dd82610d51565b91507fffffffffffffffffffffffffffffffffffffffffffffffffffffffffffffffff820361140f5761140e6113a3565b5b600182019050919050565b600060408201905061142f6000830185610dfa565b61143c6020830184610d5b565b9392505050565b60008151905061145281610d8f565b92915050565b60006020828403121561146e5761146d610d85565b5b600061147c84828501611443565b91505092915050565b600081905092915050565b50565b60006114a0600083611485565b91506114ab82611490565b600082019050919050565b60006114c182611493565b9150819050919050565b7f5061796d656e74204661696c6564000000000000000000000000000000000000600082015250565b6000611501600e83610e2f565b915061150c826114cb565b602082019050919050565b60006020820190508181036000830152611530816114f4565b9050919050565b7f4e6f742073656c6c657200000000000000000000000000000000000000000000600082015250565b600061156d600a83610e2f565b915061157882611537565b602082019050919050565b6000602082019050818103600083015261159c81611560565b9050919050565b7f43616e6e6f742075706461746520736f6c642070726f64756374000000000000600082015250565b60006115d9601a83610e2f565b91506115e4826115a3565b602082019050919050565b60006020820190508181036000830152611608816115cc565b9050919050565b7f5072696365206d757374206265203e2030000000000000000000000000000000600082015250565b6000611645601183610e2f565b91506116508261160f565b602082019050919050565b6000602082019050818103600083015261167481611638565b9050919050565b600082905092915050565b7f4e487b7100000000000000000000000000000000000000000000000000000000600052604160045260246000fd5b60008190508160005260206000209050919050565b60006020601f8301049050919050565b600082821b905092915050565b6000600883026117177fffffffffffffffffffffffffffffffffffffffffffffffffffffffffffffffff826116da565b61172186836116da565b95508019841693508086168417925050509392505050565b600061175461174f61174a84610d51565b610cd7565b610d51565b9050919050565b6000819050919050565b61176e83611739565b61178261177a8261175b565b8484546116e7565b825550505050565b600090565b61179761178a565b6117a2818484611765565b505050565b5b818110156117c6576117bb60008261178f565b6001810190506117a8565b5050565b601f82111561180b576117dc816116b5565b6117e5846116ca565b810160208510156117f4578190505b611808611800856116ca565b8301826117a7565b50505b505050565b600082821c905092915050565b600061182e60001984600802611810565b1980831691505092915050565b6000611847838361181d565b9150826002028217905092915050565b611861838361167b565b67ffffffffffffffff81111561187a57611879611686565b5b611884825461122e565b61188f8282856117ca565b6000601f8311600181146118be57600084156118ac578287013590505b6118b6858261183b565b86555061191e565b601f1984166118cc866116b5565b60005b828110156118f4578489013582556001820191506020850194506020810190506118cf565b86831015611911578489013561190d601f89168261181d565b8355505b6001600288020188555050505b50505050505050565b7f496e76616c696420507269636500000000000000000000000000000000000000600082015250565b600061195d600d83610e2f565b915061196882611927565b602082019050919050565b6000602082019050818103600083015261198c81611950565b9050919050565b61199c82610e24565b67ffffffffffffffff8111156119b5576119b4611686565b5b6119bf825461122e565b6119ca8282856117ca565b600060209050601f8311600181146119fd57600084156119eb578287015190505b6119f5858261183b565b865550611a5d565b601f198416611a0b866116b5565b60005b82811015611a3357848901518255600182019150602085019450602081019050611a0e565b86831015611a505784890151611a4c601f89168261181d565b8355505b6001600288020188555050505b50505050505056fea264697066735822122079fd6c712b12b0dd69e4685cb5aa787baf8947ba47d62b73cd371043c9a72d9764736f6c63430008140033",
  "linkReferences": {},
  "deployedLinkReferences": {}
}